{
  "_format": "hh-sol-artifact-1",
  "contractName": "MyEpicNFT",
  "sourceName": "contracts/MyEpicNFT.sol",
  "abi": [
    {
      "inputs": [],
      "stateMutability": "nonpayable",
      "type": "constructor"
    },
    {
      "anonymous": false,
      "inputs": [
        {
          "indexed": true,
          "internalType": "address",
          "name": "owner",
          "type": "address"
        },
        {
          "indexed": true,
          "internalType": "address",
          "name": "approved",
          "type": "address"
        },
        {
          "indexed": true,
          "internalType": "uint256",
          "name": "tokenId",
          "type": "uint256"
        }
      ],
      "name": "Approval",
      "type": "event"
    },
    {
      "anonymous": false,
      "inputs": [
        {
          "indexed": true,
          "internalType": "address",
          "name": "owner",
          "type": "address"
        },
        {
          "indexed": true,
          "internalType": "address",
          "name": "operator",
          "type": "address"
        },
        {
          "indexed": false,
          "internalType": "bool",
          "name": "approved",
          "type": "bool"
        }
      ],
      "name": "ApprovalForAll",
      "type": "event"
    },
    {
      "anonymous": false,
      "inputs": [
        {
          "indexed": false,
          "internalType": "address",
          "name": "sender",
          "type": "address"
        },
        {
          "indexed": false,
          "internalType": "uint256",
          "name": "tokenId",
          "type": "uint256"
        }
      ],
      "name": "NewEpicNFTMinted",
      "type": "event"
    },
    {
      "anonymous": false,
      "inputs": [
        {
          "indexed": true,
          "internalType": "address",
          "name": "from",
          "type": "address"
        },
        {
          "indexed": true,
          "internalType": "address",
          "name": "to",
          "type": "address"
        },
        {
          "indexed": true,
          "internalType": "uint256",
          "name": "tokenId",
          "type": "uint256"
        }
      ],
      "name": "Transfer",
      "type": "event"
    },
    {
      "inputs": [
        {
          "internalType": "address",
          "name": "to",
          "type": "address"
        },
        {
          "internalType": "uint256",
          "name": "tokenId",
          "type": "uint256"
        }
      ],
      "name": "approve",
      "outputs": [],
      "stateMutability": "nonpayable",
      "type": "function"
    },
    {
      "inputs": [
        {
          "internalType": "address",
          "name": "owner",
          "type": "address"
        }
      ],
      "name": "balanceOf",
      "outputs": [
        {
          "internalType": "uint256",
          "name": "",
          "type": "uint256"
        }
      ],
      "stateMutability": "view",
      "type": "function"
    },
    {
      "inputs": [
        {
          "internalType": "uint256",
          "name": "tokenId",
          "type": "uint256"
        }
      ],
      "name": "getApproved",
      "outputs": [
        {
          "internalType": "address",
          "name": "",
          "type": "address"
        }
      ],
      "stateMutability": "view",
      "type": "function"
    },
    {
      "inputs": [],
      "name": "getTotalNFTsMintedSoFar",
      "outputs": [
        {
          "internalType": "uint256",
          "name": "",
          "type": "uint256"
        }
      ],
      "stateMutability": "view",
      "type": "function"
    },
    {
      "inputs": [
        {
          "internalType": "address",
          "name": "owner",
          "type": "address"
        },
        {
          "internalType": "address",
          "name": "operator",
          "type": "address"
        }
      ],
      "name": "isApprovedForAll",
      "outputs": [
        {
          "internalType": "bool",
          "name": "",
          "type": "bool"
        }
      ],
      "stateMutability": "view",
      "type": "function"
    },
    {
      "inputs": [],
      "name": "makeAnEpicNFT",
      "outputs": [],
      "stateMutability": "nonpayable",
      "type": "function"
    },
    {
      "inputs": [],
      "name": "name",
      "outputs": [
        {
          "internalType": "string",
          "name": "",
          "type": "string"
        }
      ],
      "stateMutability": "view",
      "type": "function"
    },
    {
      "inputs": [
        {
          "internalType": "uint256",
          "name": "tokenId",
          "type": "uint256"
        }
      ],
      "name": "ownerOf",
      "outputs": [
        {
          "internalType": "address",
          "name": "",
          "type": "address"
        }
      ],
      "stateMutability": "view",
      "type": "function"
    },
    {
      "inputs": [
        {
          "internalType": "uint256",
          "name": "tokenId",
          "type": "uint256"
        }
      ],
      "name": "pickRandomFirstWord",
      "outputs": [
        {
          "internalType": "string",
          "name": "",
          "type": "string"
        }
      ],
      "stateMutability": "view",
      "type": "function"
    },
    {
      "inputs": [
        {
          "internalType": "uint256",
          "name": "tokenId",
          "type": "uint256"
        }
      ],
      "name": "pickRandomSecondWord",
      "outputs": [
        {
          "internalType": "string",
          "name": "",
          "type": "string"
        }
      ],
      "stateMutability": "view",
      "type": "function"
    },
    {
      "inputs": [
        {
          "internalType": "uint256",
          "name": "tokenId",
          "type": "uint256"
        }
      ],
      "name": "pickRandomThirdWord",
      "outputs": [
        {
          "internalType": "string",
          "name": "",
          "type": "string"
        }
      ],
      "stateMutability": "view",
      "type": "function"
    },
    {
      "inputs": [
        {
          "internalType": "address",
          "name": "from",
          "type": "address"
        },
        {
          "internalType": "address",
          "name": "to",
          "type": "address"
        },
        {
          "internalType": "uint256",
          "name": "tokenId",
          "type": "uint256"
        }
      ],
      "name": "safeTransferFrom",
      "outputs": [],
      "stateMutability": "nonpayable",
      "type": "function"
    },
    {
      "inputs": [
        {
          "internalType": "address",
          "name": "from",
          "type": "address"
        },
        {
          "internalType": "address",
          "name": "to",
          "type": "address"
        },
        {
          "internalType": "uint256",
          "name": "tokenId",
          "type": "uint256"
        },
        {
          "internalType": "bytes",
          "name": "_data",
          "type": "bytes"
        }
      ],
      "name": "safeTransferFrom",
      "outputs": [],
      "stateMutability": "nonpayable",
      "type": "function"
    },
    {
      "inputs": [
        {
          "internalType": "address",
          "name": "operator",
          "type": "address"
        },
        {
          "internalType": "bool",
          "name": "approved",
          "type": "bool"
        }
      ],
      "name": "setApprovalForAll",
      "outputs": [],
      "stateMutability": "nonpayable",
      "type": "function"
    },
    {
      "inputs": [
        {
          "internalType": "bytes4",
          "name": "interfaceId",
          "type": "bytes4"
        }
      ],
      "name": "supportsInterface",
      "outputs": [
        {
          "internalType": "bool",
          "name": "",
          "type": "bool"
        }
      ],
      "stateMutability": "view",
      "type": "function"
    },
    {
      "inputs": [],
      "name": "symbol",
      "outputs": [
        {
          "internalType": "string",
          "name": "",
          "type": "string"
        }
      ],
      "stateMutability": "view",
      "type": "function"
    },
    {
      "inputs": [
        {
          "internalType": "uint256",
          "name": "tokenId",
          "type": "uint256"
        }
      ],
      "name": "tokenURI",
      "outputs": [
        {
          "internalType": "string",
          "name": "",
          "type": "string"
        }
      ],
      "stateMutability": "view",
      "type": "function"
    },
    {
      "inputs": [
        {
          "internalType": "address",
          "name": "from",
          "type": "address"
        },
        {
          "internalType": "address",
          "name": "to",
          "type": "address"
        },
        {
          "internalType": "uint256",
          "name": "tokenId",
          "type": "uint256"
        }
      ],
      "name": "transferFrom",
      "outputs": [],
      "stateMutability": "nonpayable",
      "type": "function"
    }
  ],
  "bytecode": "0x608060405260405180610160016040528061012f8152602001620046cc61012f9139600890805190602001906200003892919062000945565b506040518061014001604052806040518060400160405280600a81526020017f496e6372656469626c650000000000000000000000000000000000000000000081525081526020016040518060400160405280600781526020017f426967676573740000000000000000000000000000000000000000000000000081525081526020016040518060400160405280600881526020017f536d616c6c65737400000000000000000000000000000000000000000000000081525081526020016040518060400160405280600781526020017f486172646573740000000000000000000000000000000000000000000000000081525081526020016040518060400160405280600781526020017f456173696573740000000000000000000000000000000000000000000000000081525081526020016040518060400160405280600781526020017f416d617a696e670000000000000000000000000000000000000000000000000081525081526020016040518060400160405280600481526020017f57696c640000000000000000000000000000000000000000000000000000000081525081526020016040518060400160405280600a81526020017f54657272696679696e670000000000000000000000000000000000000000000081525081526020016040518060400160405280600681526020017f53706f6f6b79000000000000000000000000000000000000000000000000000081525081526020016040518060400160405280600581526020017f4368696c6c000000000000000000000000000000000000000000000000000000815250815250600990600a620002a3929190620009d6565b506040518061014001604052806040518060400160405280600581526020017f50697a7a6100000000000000000000000000000000000000000000000000000081525081526020016040518060400160405280600681526020017f42616e616e61000000000000000000000000000000000000000000000000000081525081526020016040518060400160405280600781526020017f50726f7465696e0000000000000000000000000000000000000000000000000081525081526020016040518060400160405280600581526020017f47616d657200000000000000000000000000000000000000000000000000000081525081526020016040518060400160405280600381526020017f446f67000000000000000000000000000000000000000000000000000000000081525081526020016040518060400160405280600481526020017f436974790000000000000000000000000000000000000000000000000000000081525081526020016040518060400160405280600481526020017f42616c6c0000000000000000000000000000000000000000000000000000000081525081526020016040518060400160405280600381526020017f436174000000000000000000000000000000000000000000000000000000000081525081526020016040518060400160405280600581526020017f486f72736500000000000000000000000000000000000000000000000000000081525081526020016040518060400160405280600581526020017f5075707079000000000000000000000000000000000000000000000000000000815250815250600a90600a6200050e929190620009d6565b506040518061014001604052806040518060400160405280600681526020017f506572736f6e000000000000000000000000000000000000000000000000000081525081526020016040518060400160405280600481526020017f47616d650000000000000000000000000000000000000000000000000000000081525081526020016040518060400160405280600581526020017f5368616b6500000000000000000000000000000000000000000000000000000081525081526020016040518060400160405280600881526020017f41737465726f696400000000000000000000000000000000000000000000000081525081526020016040518060400160405280600481526020017f537461720000000000000000000000000000000000000000000000000000000081525081526020016040518060400160405280600681526020017f506c61796572000000000000000000000000000000000000000000000000000081525081526020016040518060400160405280600781526020017f4d6f6e737465720000000000000000000000000000000000000000000000000081525081526020016040518060400160405280600581526020017f4c6f76657200000000000000000000000000000000000000000000000000000081525081526020016040518060400160405280600681526020017f4861636b6572000000000000000000000000000000000000000000000000000081525081526020016040518060400160405280600581526020017f4861746572000000000000000000000000000000000000000000000000000000815250815250600b90600a62000779929190620009d6565b503480156200078757600080fd5b506040518060400160405280600981526020017f5371756172654e465400000000000000000000000000000000000000000000008152506040518060400160405280600681526020017f535155415245000000000000000000000000000000000000000000000000000081525081600090805190602001906200080c92919062000945565b5080600190805190602001906200082592919062000945565b505050620008736040518060400160405280601e81526020017f54686973206973206d79204e465420636f6e74726163742e20576f61682100008152506200087960201b6200113b1760201c565b62000bf7565b620009198160405160240162000890919062000b0b565b6040516020818303038152906040527f41304fac000000000000000000000000000000000000000000000000000000007bffffffffffffffffffffffffffffffffffffffffffffffffffffffff19166020820180517bffffffffffffffffffffffffffffffffffffffffffffffffffffffff83818316178352505050506200091c60201b60201c565b50565b60008151905060006a636f6e736f6c652e6c6f679050602083016000808483855afa5050505050565b828054620009539062000b81565b90600052602060002090601f016020900481019282620009775760008555620009c3565b82601f106200099257805160ff1916838001178555620009c3565b82800160010185558215620009c3579182015b82811115620009c2578251825591602001919060010190620009a5565b5b509050620009d2919062000a3d565b5090565b82805482825590600052602060002090810192821562000a2a579160200282015b8281111562000a2957825182908051906020019062000a1892919062000945565b5091602001919060010190620009f7565b5b50905062000a39919062000a5c565b5090565b5b8082111562000a5857600081600090555060010162000a3e565b5090565b5b8082111562000a80576000818162000a76919062000a84565b5060010162000a5d565b5090565b50805462000a929062000b81565b6000825580601f1062000aa6575062000ac7565b601f01602090049060005260206000209081019062000ac6919062000a3d565b5b50565b600062000ad78262000b2f565b62000ae3818562000b3a565b935062000af581856020860162000b4b565b62000b008162000be6565b840191505092915050565b6000602082019050818103600083015262000b27818462000aca565b905092915050565b600081519050919050565b600082825260208201905092915050565b60005b8381101562000b6b57808201518184015260208101905062000b4e565b8381111562000b7b576000848401525b50505050565b6000600282049050600182168062000b9a57607f821691505b6020821081141562000bb15762000bb062000bb7565b5b50919050565b7f4e487b7100000000000000000000000000000000000000000000000000000000600052602260045260246000fd5b6000601f19601f8301169050919050565b613ac58062000c076000396000f3fe608060405234801561001057600080fd5b50600436106101165760003560e01c806370a08231116100a2578063b88d4fde11610071578063b88d4fde14610305578063c575757a14610321578063c87b56dd14610351578063de9d132f14610381578063e985e9c51461038b57610116565b806370a082311461026b57806395d89b411461029b578063a22cb465146102b9578063b187301f146102d557610116565b8063095ea7b3116100e9578063095ea7b3146101b757806323b872dd146101d35780632de38d68146101ef57806342842e0e1461021f5780636352211e1461023b57610116565b806301ffc9a71461011b578063060475901461014b57806306fdde0314610169578063081812fc14610187575b600080fd5b61013560048036038101906101309190612567565b6103bb565b6040516101429190612c94565b60405180910390f35b61015361049d565b6040516101609190612f2f565b60405180910390f35b6101716104ae565b60405161017e9190612caf565b60405180910390f35b6101a1600480360381019061019c91906125b9565b610540565b6040516101ae9190612c04565b60405180910390f35b6101d160048036038101906101cc919061252b565b6105c5565b005b6101ed60048036038101906101e89190612425565b6106dd565b005b610209600480360381019061020491906125b9565b61073d565b6040516102169190612caf565b60405180910390f35b61023960048036038101906102349190612425565b61085b565b005b610255600480360381019061025091906125b9565b61087b565b6040516102629190612c04565b60405180910390f35b610285600480360381019061028091906123c0565b61092d565b6040516102929190612f2f565b60405180910390f35b6102a36109e5565b6040516102b09190612caf565b60405180910390f35b6102d360048036038101906102ce91906124ef565b610a77565b005b6102ef60048036038101906102ea91906125b9565b610a8d565b6040516102fc9190612caf565b60405180910390f35b61031f600480360381019061031a9190612474565b610bab565b005b61033b600480360381019061033691906125b9565b610c0d565b6040516103489190612caf565b60405180910390f35b61036b600480360381019061036691906125b9565b610d2b565b6040516103789190612caf565b60405180910390f35b610389610e7d565b005b6103a560048036038101906103a091906123e9565b6110a7565b6040516103b29190612c94565b60405180910390f35b60007f80ac58cd000000000000000000000000000000000000000000000000000000007bffffffffffffffffffffffffffffffffffffffffffffffffffffffff1916827bffffffffffffffffffffffffffffffffffffffffffffffffffffffff1916148061048657507f5b5e139f000000000000000000000000000000000000000000000000000000007bffffffffffffffffffffffffffffffffffffffffffffffffffffffff1916827bffffffffffffffffffffffffffffffffffffffffffffffffffffffff1916145b806104965750610495826111d4565b5b9050919050565b60006104a9600761123e565b905090565b6060600080546104bd906131c3565b80601f01602080910402602001604051908101604052809291908181526020018280546104e9906131c3565b80156105365780601f1061050b57610100808354040283529160200191610536565b820191906000526020600020905b81548152906001019060200180831161051957829003601f168201915b5050505050905090565b600061054b8261124c565b61058a576040517f08c379a000000000000000000000000000000000000000000000000000000000815260040161058190612eaf565b60405180910390fd5b6004600083815260200190815260200160002060009054906101000a900473ffffffffffffffffffffffffffffffffffffffff169050919050565b60006105d08261087b565b90508073ffffffffffffffffffffffffffffffffffffffff168373ffffffffffffffffffffffffffffffffffffffff161415610641576040517f08c379a000000000000000000000000000000000000000000000000000000000815260040161063890612eef565b60405180910390fd5b8073ffffffffffffffffffffffffffffffffffffffff166106606112b8565b73ffffffffffffffffffffffffffffffffffffffff16148061068f575061068e816106896112b8565b6110a7565b5b6106ce576040517f08c379a00000000000000000000000000000000000000000000000000000000081526004016106c590612def565b60405180910390fd5b6106d883836112c0565b505050565b6106ee6106e86112b8565b82611379565b61072d576040517f08c379a000000000000000000000000000000000000000000000000000000000815260040161072490612f0f565b60405180910390fd5b610738838383611457565b505050565b6060600061077161074d846116be565b60405160200161075d9190612bc0565b60405160208183030381529060405261186b565b905060098054905081610784919061326f565b9050600981815481106107c0577f4e487b7100000000000000000000000000000000000000000000000000000000600052603260045260246000fd5b9060005260206000200180546107d5906131c3565b80601f0160208091040260200160405190810160405280929190818152602001828054610801906131c3565b801561084e5780601f106108235761010080835404028352916020019161084e565b820191906000526020600020905b81548152906001019060200180831161083157829003601f168201915b5050505050915050919050565b61087683838360405180602001604052806000815250610bab565b505050565b6000806002600084815260200190815260200160002060009054906101000a900473ffffffffffffffffffffffffffffffffffffffff169050600073ffffffffffffffffffffffffffffffffffffffff168173ffffffffffffffffffffffffffffffffffffffff161415610924576040517f08c379a000000000000000000000000000000000000000000000000000000000815260040161091b90612e2f565b60405180910390fd5b80915050919050565b60008073ffffffffffffffffffffffffffffffffffffffff168273ffffffffffffffffffffffffffffffffffffffff16141561099e576040517f08c379a000000000000000000000000000000000000000000000000000000000815260040161099590612e0f565b60405180910390fd5b600360008373ffffffffffffffffffffffffffffffffffffffff1673ffffffffffffffffffffffffffffffffffffffff168152602001908152602001600020549050919050565b6060600180546109f4906131c3565b80601f0160208091040260200160405190810160405280929190818152602001828054610a20906131c3565b8015610a6d5780601f10610a4257610100808354040283529160200191610a6d565b820191906000526020600020905b815481529060010190602001808311610a5057829003601f168201915b5050505050905090565b610a89610a826112b8565b838361189e565b5050565b60606000610ac1610a9d846116be565b604051602001610aad9190612b59565b60405160208183030381529060405261186b565b9050600a8054905081610ad4919061326f565b9050600a8181548110610b10577f4e487b7100000000000000000000000000000000000000000000000000000000600052603260045260246000fd5b906000526020600020018054610b25906131c3565b80601f0160208091040260200160405190810160405280929190818152602001828054610b51906131c3565b8015610b9e5780601f10610b7357610100808354040283529160200191610b9e565b820191906000526020600020905b815481529060010190602001808311610b8157829003601f168201915b5050505050915050919050565b610bbc610bb66112b8565b83611379565b610bfb576040517f08c379a0000000000000000000000000000000000000000000000000000000008152600401610bf290612f0f565b60405180910390fd5b610c0784848484611a0b565b50505050565b60606000610c41610c1d846116be565b604051602001610c2d9190612b37565b60405160208183030381529060405261186b565b9050600b8054905081610c54919061326f565b9050600b8181548110610c90577f4e487b7100000000000000000000000000000000000000000000000000000000600052603260045260246000fd5b906000526020600020018054610ca5906131c3565b80601f0160208091040260200160405190810160405280929190818152602001828054610cd1906131c3565b8015610d1e5780601f10610cf357610100808354040283529160200191610d1e565b820191906000526020600020905b815481529060010190602001808311610d0157829003601f168201915b5050505050915050919050565b6060610d368261124c565b610d75576040517f08c379a0000000000000000000000000000000000000000000000000000000008152600401610d6c90612e8f565b60405180910390fd5b6000600660008481526020019081526020016000208054610d95906131c3565b80601f0160208091040260200160405190810160405280929190818152602001828054610dc1906131c3565b8015610e0e5780601f10610de357610100808354040283529160200191610e0e565b820191906000526020600020905b815481529060010190602001808311610df157829003601f168201915b505050505090506000610e1f611a67565b9050600081511415610e35578192505050610e78565b600082511115610e6a578082604051602001610e52929190612ab3565b60405160208183030381529060405292505050610e78565b610e7384611a7e565b925050505b919050565b6000610e89600761123e565b905060328110610ece576040517f08c379a0000000000000000000000000000000000000000000000000000000008152600401610ec590612d0f565b60405180910390fd5b6000610ed98261073d565b90506000610ee683610a8d565b90506000610ef384610c0d565b90506000838383604051602001610f0c93929190612ad7565b60405160208183030381529060405290506000600882604051602001610f33929190612b08565b60405160208183030381529060405290506000610f7883610f5384611b25565b604051602001610f64929190612b7b565b604051602081830303815290604052611b25565b9050600081604051602001610f8d9190612be2565b6040516020818303038152906040529050610fdc6040518060400160405280601581526020017f0a2d2d2d2d2d2d2d2d2d2d2d2d2d2d2d2d2d2d2d2d000000000000000000000081525061113b565b610fe58161113b565b6110236040518060400160405280601581526020017f2d2d2d2d2d2d2d2d2d2d2d2d2d2d2d2d2d2d2d2d0a000000000000000000000081525061113b565b61102d3389611ce3565b6110378882611d01565b6110416007611d75565b611064604051806060016040528060258152602001613a2b602591398933611d8b565b7febb98688741ffa4c7589bf325de30cf7becb63de567842e1ccdb6cb949fdc82c3389604051611095929190612c6b565b60405180910390a15050505050505050565b6000600560008473ffffffffffffffffffffffffffffffffffffffff1673ffffffffffffffffffffffffffffffffffffffff16815260200190815260200160002060008373ffffffffffffffffffffffffffffffffffffffff1673ffffffffffffffffffffffffffffffffffffffff16815260200190815260200160002060009054906101000a900460ff16905092915050565b6111d18160405160240161114f9190612caf565b6040516020818303038152906040527f41304fac000000000000000000000000000000000000000000000000000000007bffffffffffffffffffffffffffffffffffffffffffffffffffffffff19166020820180517bffffffffffffffffffffffffffffffffffffffffffffffffffffffff8381831617835250505050611e2a565b50565b60007f01ffc9a7000000000000000000000000000000000000000000000000000000007bffffffffffffffffffffffffffffffffffffffffffffffffffffffff1916827bffffffffffffffffffffffffffffffffffffffffffffffffffffffff1916149050919050565b600081600001549050919050565b60008073ffffffffffffffffffffffffffffffffffffffff166002600084815260200190815260200160002060009054906101000a900473ffffffffffffffffffffffffffffffffffffffff1673ffffffffffffffffffffffffffffffffffffffff1614159050919050565b600033905090565b816004600083815260200190815260200160002060006101000a81548173ffffffffffffffffffffffffffffffffffffffff021916908373ffffffffffffffffffffffffffffffffffffffff160217905550808273ffffffffffffffffffffffffffffffffffffffff166113338361087b565b73ffffffffffffffffffffffffffffffffffffffff167f8c5be1e5ebec7d5bd14f71427d1e84f3dd0314c0f7b2291e5b200ac8c7c3b92560405160405180910390a45050565b60006113848261124c565b6113c3576040517f08c379a00000000000000000000000000000000000000000000000000000000081526004016113ba90612dcf565b60405180910390fd5b60006113ce8361087b565b90508073ffffffffffffffffffffffffffffffffffffffff168473ffffffffffffffffffffffffffffffffffffffff16148061143d57508373ffffffffffffffffffffffffffffffffffffffff1661142584610540565b73ffffffffffffffffffffffffffffffffffffffff16145b8061144e575061144d81856110a7565b5b91505092915050565b8273ffffffffffffffffffffffffffffffffffffffff166114778261087b565b73ffffffffffffffffffffffffffffffffffffffff16146114cd576040517f08c379a00000000000000000000000000000000000000000000000000000000081526004016114c490612d4f565b60405180910390fd5b600073ffffffffffffffffffffffffffffffffffffffff168273ffffffffffffffffffffffffffffffffffffffff16141561153d576040517f08c379a000000000000000000000000000000000000000000000000000000000815260040161153490612d8f565b60405180910390fd5b611548838383611e53565b6115536000826112c0565b6001600360008573ffffffffffffffffffffffffffffffffffffffff1673ffffffffffffffffffffffffffffffffffffffff16815260200190815260200160002060008282546115a391906130d9565b925050819055506001600360008473ffffffffffffffffffffffffffffffffffffffff1673ffffffffffffffffffffffffffffffffffffffff16815260200190815260200160002060008282546115fa9190612ff8565b92505081905550816002600083815260200190815260200160002060006101000a81548173ffffffffffffffffffffffffffffffffffffffff021916908373ffffffffffffffffffffffffffffffffffffffff160217905550808273ffffffffffffffffffffffffffffffffffffffff168473ffffffffffffffffffffffffffffffffffffffff167fddf252ad1be2c89b69c2b068fc378daa952ba7f163c4a11628f55a4df523b3ef60405160405180910390a46116b9838383611e58565b505050565b60606000821415611706576040518060400160405280600181526020017f30000000000000000000000000000000000000000000000000000000000000008152509050611866565b600082905060005b6000821461173857808061172190613226565b915050600a82611731919061304e565b915061170e565b60008167ffffffffffffffff81111561177a577f4e487b7100000000000000000000000000000000000000000000000000000000600052604160045260246000fd5b6040519080825280601f01601f1916602001820160405280156117ac5781602001600182028036833780820191505090505b5090505b6000851461185f576001826117c591906130d9565b9150600a856117d4919061326f565b60306117e09190612ff8565b60f81b81838151811061181c577f4e487b7100000000000000000000000000000000000000000000000000000000600052603260045260246000fd5b60200101907effffffffffffffffffffffffffffffffffffffffffffffffffffffffffffff1916908160001a905350600a85611858919061304e565b94506117b0565b8093505050505b919050565b60008160405160200161187e9190612a9c565b6040516020818303038152906040528051906020012060001c9050919050565b8173ffffffffffffffffffffffffffffffffffffffff168373ffffffffffffffffffffffffffffffffffffffff16141561190d576040517f08c379a000000000000000000000000000000000000000000000000000000000815260040161190490612daf565b60405180910390fd5b80600560008573ffffffffffffffffffffffffffffffffffffffff1673ffffffffffffffffffffffffffffffffffffffff16815260200190815260200160002060008473ffffffffffffffffffffffffffffffffffffffff1673ffffffffffffffffffffffffffffffffffffffff16815260200190815260200160002060006101000a81548160ff0219169083151502179055508173ffffffffffffffffffffffffffffffffffffffff168373ffffffffffffffffffffffffffffffffffffffff167f17307eab39ab6107e8899845ad3d59bd9653f200f220920489ca2b5937696c31836040516119fe9190612c94565b60405180910390a3505050565b611a16848484611457565b611a2284848484611e5d565b611a61576040517f08c379a0000000000000000000000000000000000000000000000000000000008152600401611a5890612d2f565b60405180910390fd5b50505050565b606060405180602001604052806000815250905090565b6060611a898261124c565b611ac8576040517f08c379a0000000000000000000000000000000000000000000000000000000008152600401611abf90612ecf565b60405180910390fd5b6000611ad2611a67565b90506000815111611af25760405180602001604052806000815250611b1d565b80611afc846116be565b604051602001611b0d929190612ab3565b6040516020818303038152906040525b915050919050565b60606000825190506000811415611b4e5760405180602001604052806000815250915050611cde565b60006003600283611b5f9190612ff8565b611b69919061304e565b6004611b75919061307f565b90506000602082611b869190612ff8565b67ffffffffffffffff811115611bc5577f4e487b7100000000000000000000000000000000000000000000000000000000600052604160045260246000fd5b6040519080825280601f01601f191660200182016040528015611bf75781602001600182028036833780820191505090505b5090506000604051806060016040528060408152602001613a50604091399050600181016020830160005b86811015611c9b5760038101905062ffffff818a015116603f8160121c168401518060081b905060ff603f83600c1c1686015116810190508060081b905060ff603f8360061c1686015116810190508060081b905060ff603f831686015116810190508060e01b90508084526004840193505050611c22565b506003860660018114611cb55760028114611cc557611cd0565b613d3d60f01b6002830352611cd0565b603d60f81b60018303525b508484525050819450505050505b919050565b611cfd828260405180602001604052806000815250611ff4565b5050565b611d0a8261124c565b611d49576040517f08c379a0000000000000000000000000000000000000000000000000000000008152600401611d4090612e4f565b60405180910390fd5b80600660008481526020019081526020016000209080519060200190611d7092919061224c565b505050565b6001816000016000828254019250508190555050565b611e25838383604051602401611da393929190612cd1565b6040516020818303038152906040527fe3849f79000000000000000000000000000000000000000000000000000000007bffffffffffffffffffffffffffffffffffffffffffffffffffffffff19166020820180517bffffffffffffffffffffffffffffffffffffffffffffffffffffffff8381831617835250505050611e2a565b505050565b60008151905060006a636f6e736f6c652e6c6f679050602083016000808483855afa5050505050565b505050565b505050565b6000611e7e8473ffffffffffffffffffffffffffffffffffffffff1661204f565b15611fe7578373ffffffffffffffffffffffffffffffffffffffff1663150b7a02611ea76112b8565b8786866040518563ffffffff1660e01b8152600401611ec99493929190612c1f565b602060405180830381600087803b158015611ee357600080fd5b505af1925050508015611f1457506040513d601f19601f82011682018060405250810190611f119190612590565b60015b611f97573d8060008114611f44576040519150601f19603f3d011682016040523d82523d6000602084013e611f49565b606091505b50600081511415611f8f576040517f08c379a0000000000000000000000000000000000000000000000000000000008152600401611f8690612d2f565b60405180910390fd5b805181602001fd5b63150b7a0260e01b7bffffffffffffffffffffffffffffffffffffffffffffffffffffffff1916817bffffffffffffffffffffffffffffffffffffffffffffffffffffffff191614915050611fec565b600190505b949350505050565b611ffe8383612072565b61200b6000848484611e5d565b61204a576040517f08c379a000000000000000000000000000000000000000000000000000000000815260040161204190612d2f565b60405180910390fd5b505050565b6000808273ffffffffffffffffffffffffffffffffffffffff163b119050919050565b600073ffffffffffffffffffffffffffffffffffffffff168273ffffffffffffffffffffffffffffffffffffffff1614156120e2576040517f08c379a00000000000000000000000000000000000000000000000000000000081526004016120d990612e6f565b60405180910390fd5b6120eb8161124c565b1561212b576040517f08c379a000000000000000000000000000000000000000000000000000000000815260040161212290612d6f565b60405180910390fd5b61213760008383611e53565b6001600360008473ffffffffffffffffffffffffffffffffffffffff1673ffffffffffffffffffffffffffffffffffffffff16815260200190815260200160002060008282546121879190612ff8565b92505081905550816002600083815260200190815260200160002060006101000a81548173ffffffffffffffffffffffffffffffffffffffff021916908373ffffffffffffffffffffffffffffffffffffffff160217905550808273ffffffffffffffffffffffffffffffffffffffff16600073ffffffffffffffffffffffffffffffffffffffff167fddf252ad1be2c89b69c2b068fc378daa952ba7f163c4a11628f55a4df523b3ef60405160405180910390a461224860008383611e58565b5050565b828054612258906131c3565b90600052602060002090601f01602090048101928261227a57600085556122c1565b82601f1061229357805160ff19168380011785556122c1565b828001600101855582156122c1579182015b828111156122c05782518255916020019190600101906122a5565b5b5090506122ce91906122d2565b5090565b5b808211156122eb5760008160009055506001016122d3565b5090565b60006123026122fd84612f6f565b612f4a565b90508281526020810184848401111561231a57600080fd5b612325848285613181565b509392505050565b60008135905061233c816139ce565b92915050565b600081359050612351816139e5565b92915050565b600081359050612366816139fc565b92915050565b60008151905061237b816139fc565b92915050565b600082601f83011261239257600080fd5b81356123a28482602086016122ef565b91505092915050565b6000813590506123ba81613a13565b92915050565b6000602082840312156123d257600080fd5b60006123e08482850161232d565b91505092915050565b600080604083850312156123fc57600080fd5b600061240a8582860161232d565b925050602061241b8582860161232d565b9150509250929050565b60008060006060848603121561243a57600080fd5b60006124488682870161232d565b93505060206124598682870161232d565b925050604061246a868287016123ab565b9150509250925092565b6000806000806080858703121561248a57600080fd5b60006124988782880161232d565b94505060206124a98782880161232d565b93505060406124ba878288016123ab565b925050606085013567ffffffffffffffff8111156124d757600080fd5b6124e387828801612381565b91505092959194509250565b6000806040838503121561250257600080fd5b60006125108582860161232d565b925050602061252185828601612342565b9150509250929050565b6000806040838503121561253e57600080fd5b600061254c8582860161232d565b925050602061255d858286016123ab565b9150509250929050565b60006020828403121561257957600080fd5b600061258784828501612357565b91505092915050565b6000602082840312156125a257600080fd5b60006125b08482850161236c565b91505092915050565b6000602082840312156125cb57600080fd5b60006125d9848285016123ab565b91505092915050565b6125eb8161310d565b82525050565b6125fa8161311f565b82525050565b600061260b82612fb5565b6126158185612fcb565b9350612625818560208601613190565b61262e8161335c565b840191505092915050565b600061264482612fc0565b61264e8185612fdc565b935061265e818560208601613190565b6126678161335c565b840191505092915050565b600061267d82612fc0565b6126878185612fed565b9350612697818560208601613190565b80840191505092915050565b600081546126b0816131c3565b6126ba8186612fed565b945060018216600081146126d557600181146126e657612719565b60ff19831686528186019350612719565b6126ef85612fa0565b60005b83811015612711578154818901526001820191506020810190506126f2565b838801955050505b50505092915050565b600061272f601283612fdc565b915061273a8261336d565b602082019050919050565b6000612752603283612fdc565b915061275d82613396565b604082019050919050565b6000612775602583612fdc565b9150612780826133e5565b604082019050919050565b6000612798601c83612fdc565b91506127a382613434565b602082019050919050565b60006127bb600a83612fed565b91506127c68261345d565b600a82019050919050565b60006127de602483612fdc565b91506127e982613486565b604082019050919050565b6000612801601983612fdc565b915061280c826134d5565b602082019050919050565b6000612824606383612fed565b915061282f826134fe565b606382019050919050565b6000612847600b83612fed565b915061285282613599565b600b82019050919050565b600061286a602c83612fdc565b9150612875826135c2565b604082019050919050565b600061288d600d83612fed565b915061289882613611565b600d82019050919050565b60006128b0603883612fdc565b91506128bb8261363a565b604082019050919050565b60006128d3602a83612fdc565b91506128de82613689565b604082019050919050565b60006128f6602983612fdc565b9150612901826136d8565b604082019050919050565b6000612919602e83612fdc565b915061292482613727565b604082019050919050565b600061293c600283612fed565b915061294782613776565b600282019050919050565b600061295f602083612fdc565b915061296a8261379f565b602082019050919050565b6000612982603183612fdc565b915061298d826137c8565b604082019050919050565b60006129a5602c83612fdc565b91506129b082613817565b604082019050919050565b60006129c8602f83612fdc565b91506129d382613866565b604082019050919050565b60006129eb600a83612fed565b91506129f6826138b5565b600a82019050919050565b6000612a0e602183612fdc565b9150612a19826138de565b604082019050919050565b6000612a31600a83612fed565b9150612a3c8261392d565b600a82019050919050565b6000612a54601d83612fed565b9150612a5f82613956565b601d82019050919050565b6000612a77603183612fdc565b9150612a828261397f565b604082019050919050565b612a9681613177565b82525050565b6000612aa88284612672565b915081905092915050565b6000612abf8285612672565b9150612acb8284612672565b91508190509392505050565b6000612ae38286612672565b9150612aef8285612672565b9150612afb8284612672565b9150819050949350505050565b6000612b1482856126a3565b9150612b208284612672565b9150612b2b82612880565b91508190509392505050565b6000612b42826127ae565b9150612b4e8284612672565b915081905092915050565b6000612b648261283a565b9150612b708284612672565b915081905092915050565b6000612b86826129de565b9150612b928285612672565b9150612b9d82612817565b9150612ba98284612672565b9150612bb48261292f565b91508190509392505050565b6000612bcb82612a24565b9150612bd78284612672565b915081905092915050565b6000612bed82612a47565b9150612bf98284612672565b915081905092915050565b6000602082019050612c1960008301846125e2565b92915050565b6000608082019050612c3460008301876125e2565b612c4160208301866125e2565b612c4e6040830185612a8d565b8181036060830152612c608184612600565b905095945050505050565b6000604082019050612c8060008301856125e2565b612c8d6020830184612a8d565b9392505050565b6000602082019050612ca960008301846125f1565b92915050565b60006020820190508181036000830152612cc98184612639565b905092915050565b60006060820190508181036000830152612ceb8186612639565b9050612cfa6020830185612a8d565b612d0760408301846125e2565b949350505050565b60006020820190508181036000830152612d2881612722565b9050919050565b60006020820190508181036000830152612d4881612745565b9050919050565b60006020820190508181036000830152612d6881612768565b9050919050565b60006020820190508181036000830152612d888161278b565b9050919050565b60006020820190508181036000830152612da8816127d1565b9050919050565b60006020820190508181036000830152612dc8816127f4565b9050919050565b60006020820190508181036000830152612de88161285d565b9050919050565b60006020820190508181036000830152612e08816128a3565b9050919050565b60006020820190508181036000830152612e28816128c6565b9050919050565b60006020820190508181036000830152612e48816128e9565b9050919050565b60006020820190508181036000830152612e688161290c565b9050919050565b60006020820190508181036000830152612e8881612952565b9050919050565b60006020820190508181036000830152612ea881612975565b9050919050565b60006020820190508181036000830152612ec881612998565b9050919050565b60006020820190508181036000830152612ee8816129bb565b9050919050565b60006020820190508181036000830152612f0881612a01565b9050919050565b60006020820190508181036000830152612f2881612a6a565b9050919050565b6000602082019050612f446000830184612a8d565b92915050565b6000612f54612f65565b9050612f6082826131f5565b919050565b6000604051905090565b600067ffffffffffffffff821115612f8a57612f8961332d565b5b612f938261335c565b9050602081019050919050565b60008190508160005260206000209050919050565b600081519050919050565b600081519050919050565b600082825260208201905092915050565b600082825260208201905092915050565b600081905092915050565b600061300382613177565b915061300e83613177565b9250827fffffffffffffffffffffffffffffffffffffffffffffffffffffffffffffffff03821115613043576130426132a0565b5b828201905092915050565b600061305982613177565b915061306483613177565b925082613074576130736132cf565b5b828204905092915050565b600061308a82613177565b915061309583613177565b9250817fffffffffffffffffffffffffffffffffffffffffffffffffffffffffffffffff04831182151516156130ce576130cd6132a0565b5b828202905092915050565b60006130e482613177565b91506130ef83613177565b925082821015613102576131016132a0565b5b828203905092915050565b600061311882613157565b9050919050565b60008115159050919050565b60007fffffffff0000000000000000000000000000000000000000000000000000000082169050919050565b600073ffffffffffffffffffffffffffffffffffffffff82169050919050565b6000819050919050565b82818337600083830152505050565b60005b838110156131ae578082015181840152602081019050613193565b838111156131bd576000848401525b50505050565b600060028204905060018216806131db57607f821691505b602082108114156131ef576131ee6132fe565b5b50919050565b6131fe8261335c565b810181811067ffffffffffffffff8211171561321d5761321c61332d565b5b80604052505050565b600061323182613177565b91507fffffffffffffffffffffffffffffffffffffffffffffffffffffffffffffffff821415613264576132636132a0565b5b600182019050919050565b600061327a82613177565b915061328583613177565b925082613295576132946132cf565b5b828206905092915050565b7f4e487b7100000000000000000000000000000000000000000000000000000000600052601160045260246000fd5b7f4e487b7100000000000000000000000000000000000000000000000000000000600052601260045260246000fd5b7f4e487b7100000000000000000000000000000000000000000000000000000000600052602260045260246000fd5b7f4e487b7100000000000000000000000000000000000000000000000000000000600052604160045260246000fd5b6000601f19601f8301169050919050565b7f4d696e74206c696d697420726561636865640000000000000000000000000000600082015250565b7f4552433732313a207472616e7366657220746f206e6f6e20455243373231526560008201527f63656976657220696d706c656d656e7465720000000000000000000000000000602082015250565b7f4552433732313a207472616e736665722066726f6d20696e636f72726563742060008201527f6f776e6572000000000000000000000000000000000000000000000000000000602082015250565b7f4552433732313a20746f6b656e20616c7265616479206d696e74656400000000600082015250565b7f54484952445f574f524400000000000000000000000000000000000000000000600082015250565b7f4552433732313a207472616e7366657220746f20746865207a65726f2061646460008201527f7265737300000000000000000000000000000000000000000000000000000000602082015250565b7f4552433732313a20617070726f766520746f2063616c6c657200000000000000600082015250565b7f222c20226465736372697074696f6e223a20224120686967686c79206163636c60008201527f61696d656420636f6c6c656374696f6e206f6620737175617265732e222c202260208201527f696d616765223a2022646174613a696d6167652f7376672b786d6c3b6261736560408201527f36342c0000000000000000000000000000000000000000000000000000000000606082015250565b7f5345434f4e445f574f5244000000000000000000000000000000000000000000600082015250565b7f4552433732313a206f70657261746f7220717565727920666f72206e6f6e657860008201527f697374656e7420746f6b656e0000000000000000000000000000000000000000602082015250565b7f3c2f746578743e3c2f7376673e00000000000000000000000000000000000000600082015250565b7f4552433732313a20617070726f76652063616c6c6572206973206e6f74206f7760008201527f6e6572206e6f7220617070726f76656420666f7220616c6c0000000000000000602082015250565b7f4552433732313a2062616c616e636520717565727920666f7220746865207a6560008201527f726f206164647265737300000000000000000000000000000000000000000000602082015250565b7f4552433732313a206f776e657220717565727920666f72206e6f6e657869737460008201527f656e7420746f6b656e0000000000000000000000000000000000000000000000602082015250565b7f45524337323155524953746f726167653a2055524920736574206f66206e6f6e60008201527f6578697374656e7420746f6b656e000000000000000000000000000000000000602082015250565b7f227d000000000000000000000000000000000000000000000000000000000000600082015250565b7f4552433732313a206d696e7420746f20746865207a65726f2061646472657373600082015250565b7f45524337323155524953746f726167653a2055524920717565727920666f722060008201527f6e6f6e6578697374656e7420746f6b656e000000000000000000000000000000602082015250565b7f4552433732313a20617070726f76656420717565727920666f72206e6f6e657860008201527f697374656e7420746f6b656e0000000000000000000000000000000000000000602082015250565b7f4552433732314d657461646174613a2055524920717565727920666f72206e6f60008201527f6e6578697374656e7420746f6b656e0000000000000000000000000000000000602082015250565b7f7b226e616d65223a202200000000000000000000000000000000000000000000600082015250565b7f4552433732313a20617070726f76616c20746f2063757272656e74206f776e6560008201527f7200000000000000000000000000000000000000000000000000000000000000602082015250565b7f46495253545f574f524400000000000000000000000000000000000000000000600082015250565b7f646174613a6170706c69636174696f6e2f6a736f6e3b6261736536342c000000600082015250565b7f4552433732313a207472616e736665722063616c6c6572206973206e6f74206f60008201527f776e6572206e6f7220617070726f766564000000000000000000000000000000602082015250565b6139d78161310d565b81146139e257600080fd5b50565b6139ee8161311f565b81146139f957600080fd5b50565b613a058161312b565b8114613a1057600080fd5b50565b613a1c81613177565b8114613a2757600080fd5b5056fe416e204e465420772f20494420257320686173206265656e206d696e74656420746f2025734142434445464748494a4b4c4d4e4f505152535455565758595a6162636465666768696a6b6c6d6e6f707172737475767778797a303132333435363738392b2fa2646970667358221220ea46e645b686d381802ef2e08394cabd328cb9da6387b2dd53109bf679733c8764736f6c634300080400333c73766720786d6c6e733d27687474703a2f2f7777772e77332e6f72672f323030302f73766727207072657365727665417370656374526174696f3d27784d696e594d696e206d656574272076696577426f783d273020302033353020333530273e3c7374796c653e2e62617365207b2066696c6c3a2077686974653b20666f6e742d66616d696c793a2073657269663b20666f6e742d73697a653a20323470783b207d3c2f7374796c653e3c726563742077696474683d273130302527206865696768743d2731303025272066696c6c3d27626c61636b27202f3e3c7465787420783d273530252720793d273530252720636c6173733d27626173652720646f6d696e616e742d626173656c696e653d276d6964646c652720746578742d616e63686f723d276d6964646c65273e",
  "linkReferences": {},
  "deployedLinkReferences": {}
}